:020000040800F2
:10000000F01C00204501000803040008FB03000861
:10001000FF030008F5030008A90400080000000021
:100020000000000000000000000000002F04000895
:10003000F9030008000000002D0400083104000846
:100040005F0100085F0100085F0100085F01000810
:100050005F0100085F0100085F0100085F01000800
:100060005F0100085F0100085F0100085F010008F0
:100070005F0100085F0100085F0100085F010008E0
:100080005F0100085F0100085F0100085F010008D0
:100090005F0100085F0100085F0100085F010008C0
:1000A0005F0100085F0100085F0100085F010008B0
:1000B0005F0100085F0100085F0100085F010008A0
:1000C0005F0100085F0100085F0100085F01000890
:1000D0005F0100085F0100085F0100085F01000880
:1000E0005F0100085F0100085F0100085F01000870
:1000F0005F0100085F0100085F0100085F01000860
:100100005F0100085F0100085F0100085F0100084F
:100110005F0100085F0100085F0100085F0100083F
:100120005F0100085F0100085F0100085F0100082F
:10013000DFF80CD000F04AF800480047A10C000896
:10014000F01C00200648804706480047FEE7FEE70F
:10015000FEE7FEE7FEE7FEE7FEE7FEE7FEE7FEE777
:1001600039040008310100082DE9F05F0546002040
:1001700092469B4688460646814640241BE0284618
:1001800041464746224600F042F853465A46C01AB6
:10019000914110D311461846224600F029F82D1A35
:1001A00067EB01084F4622460120002100F020F8AD
:1001B00017EB00094E41201EA4F10104DFDC484684
:1001C00031462A464346BDE8F09F0000064C074DE5
:1001D00006E0E06840F0010394E807009847103417
:1001E000AC42F6D3FFF7A8FFE012000800130008A6
:1001F000202A04DB203A00FA02F1002070479140E7
:10020000C2F1200320FA03F3194390407047202ADB
:1002100004DB203A21FA02F00021704721FA02F3B0
:10022000D040C2F12002914008431946704710B5F2
:1002300003461446002200BF03E008789854491C86
:10024000521CA242F9D3002010BD00002DE9FC5F32
:1002500081468846174600200190824600260024E9
:10026000834600250090B8F1006F04D308EB070027
:100270003949884202D30020BDE8FC9F00F0D4FB3E
:1002800064E0B144B044BF1BA8F1006B4FF40065BB
:10029000BBFBF5F00190BBFBF5F005FB10B01FFABE
:1002A00080FAA5EB0A0086B20198684300F100606D
:1002B0000090B74200D8BEB22A4628480099FFF7FE
:1002C000B6FF002406E02548005DFF2800D003E0CB
:1002D000601C84B2AC42F6D300BFAC4221D200987D
:1002E00000F030FB40F2053000F006FB4FF44170A7
:1002F00000F002FB40F2023000F0FEFA002407E0BA
:1003000019F8040004EB0A01144A5054601C84B22A
:10031000B442F5DBC5F38F021049009800F038F8BD
:1003200011E0002407E019F8040004EB0A010B4A6D
:100330005054601C84B2B442F5DBC5F38F02074908
:10034000009800F025F8B74200D100E099E700BF1F
:1003500000F0E2FA01208FE700000808EC08002016
:1003600070B505460E46002400BF0CE0295D074825
:1003700000F014FF00BF0721044800F060FF0028D0
:10038000F9D0601C84B2B442F0DB70BD0050004074
:100390002DE9F0470546884616464FF000092F46DE
:1003A000B5F1006F03D3A8191149884202D9012081
:1003B000BDE8F087002416E008EB8400D0F8009038
:1003C0004946384600F052FB40F2053000F094FAFE
:1003D0004FF4417000F090FA40F2023000F08CFAD5
:1003E0003F1D601C84B2B442E6DB0020E0E7000061
:1003F0000000080800BFFEE7704700BFFEE700BF2F
:10040000FEE7704710B5002807DA0A07140E054A00
:1004100000F00F031B1FD45403E00A07130E024A17
:10042000135410BD18ED00E000E400E07047704781
:1004300010B500F001FA10BD08B51848006840F486
:100440007000164908601648006840F00100144921
:1004500008600846406840F0800048600020009036
:1004600002E00098401C009044F620610098884209
:10047000F7D300200A494860C86208460068094965
:100480000840074908604FF41F008860084600686C
:1004900020F48020086000F071FD08BD88ED00E0C8
:1004A00000100240FFFFF6FE00BFFEE710B540F26D
:1004B000046000F0B5FC40F2147000F0B1FC4FF4A1
:1004C000805303221821194800F052FB0423032211
:1004D0004821164800F04CFB154800F063FE4FF42D
:1004E000E131134800F012FE0021114800F0D0FE67
:1004F00000210F4800F0ECFE00210D4800F0D8FE6E
:1005000004210B4800F0CCFE0821094800F0D8FE79
:1005100040F20531064800F0A1FE054800F08AFED1
:100520000449034800F0A7FE10BD00000010014080
:1005300000500040050305000FB4054B10B503A99A
:10054000044A029800F018F810BC5DF814FB000093
:10055000250B00081400002002E008C8121F08C183
:10056000002AFAD170477047002001E001C1121F34
:10057000002AFBD1704700002DE9FF4F8DB09B464C
:100580000F460446002606E025280BD05A460F9950
:100590009047641C761C20780028F5D111B03046B5
:1005A000BDE8F08F0025A8460122984900E00543E8
:1005B00014F8013F203B02FA03F00842F7D12078FB
:1005C0002E2817D114F8010F45F004052A280ED063
:1005D0006FF02F022078A0F1300109290AD808EB2A
:1005E000880102EB410100EB0108641CF2E757F8B7
:1005F000048B641C20786C280DD004DC4C2812D0AD
:100600006A2811D104E074280DD07A280CD10AE0B0
:1006100045F4001507E0617845F48015814202D168
:10062000641C05F58015641C2278692A45D008DC15
:10063000002AB3D0582A69D0632A10D0642A08D17E
:100640003BE0702A67D0732A13D0752A5CD0782AD1
:100650005CD010465A460F999047761CD3E017F8A5
:10066000040B8DF8000000208DF80100E946012000
:1006700003E057F8049B4FF0FF3069074FF0000587
:1006800001D40AE06D1C45450DDA8542FADB19F804
:1006900005100029F6D106E06D1C8542FCDB19F837
:1006A00005100029F8D12E4404E019F8010B5A4630
:1006B0000F9990476D1EF8D2A5E00A200021CDE9E0
:1006C0000801C5F3025002280DD001CFC117031E47
:1006D00071F100030DDA4FF0000CD0EB0C006CEB65
:1006E00001012D2308E0FF1D27F00707F7E80201AD
:1006F000EDE72B0504D52B238DF8283001233BE0B3
:10070000EB0739D02023F7E70A2000E01020002172
:10071000CDE9080107E01020002145F00405CDE9EE
:1007200008014FF00808C5F3025002280FD001CF8E
:1007300000214FF0000A2B071FD5702A0DD0DDE9EC
:1007400008C38CF0100C5CEA030C0CD015E0FF1D04
:1007500027F00707F7E80201EBE740228DF8282091
:100760004FF0010A0BE050EA010306D030238DF868
:1007700028308DF8292002239A46582A04D024A232
:100780000DF120090B9209E026A2F9E7DDE9082323
:10079000FFF7EAFC0B9B9B5C09F8013D50EA010264
:1007A000F4D1ADEB090020300890680701D44FF078
:1007B00001080899884502DDA8EB010000E000204F
:1007C0008046002506E00AA85A46405D0F999047EA
:1007D0006D1C761C5545F6DB04E030205A460F9917
:1007E0009047761CB8F10001A8F10108F5DC05E09E
:1007F00019F8010B5A460F999047761C0899481E24
:1008000008900029F4DC641CC5E6000009280100FA
:100810003031323334353637383961626364656676
:100820000000000030313233343536373839414238
:1008300043444546000000000448006820B10348D6
:100840000068401E01490860704700000C0000204D
:1008500000B50346012200BF00F00CF802465B1E03
:10086000012A01D1002BF7D1012A00D10422104620
:1008700000BD000000200A49C96801F0010109B16A
:1008800001200CE00649C96801F0100109B10320FC
:1008900005E00349C96801F0040101B10220704775
:1008A0000020024000B50346012200BF00F00CF812
:1008B00002465B1E012A01D1002BF7D1012A00D18B
:1008C0000422104600BD000000200A49C96C01F056
:1008D000010109B101200CE00649C96C01F01001C9
:1008E00009B1032005E00349C96C01F0040101B11D
:1008F0000220704700200240064A02EB901109686E
:1009000000F01F0301229A401143024B03EB9012A7
:1009100011607047002002400848006940F08000E4
:100920000649086106480088B0F5007F04D90846EA
:10093000006D40F080000865704700000020024014
:10094000E0F7FF1F30B5054633480088B0F5007F5B
:1009500044D9324885421CD23148FFF779FF04461A
:10096000002C56D12F48006940F002002D49086143
:1009700008464561006940F0400008612848FFF7DB
:1009800067FF04462748006920F0020025490861F6
:100990003FE02348FFF786FF0446002C39D1214869
:1009A000006D40F002001F49086508464565C069B2
:1009B00000F0020008B1084645611A48006D40F099
:1009C0004000184908651648FFF76CFF04461548B3
:1009D000006D20F00200134908651AE01048FFF787
:1009E00037FF0446ACB90F48006940F002000D49DA
:1009F000086108464561006940F040000861084808
:100A0000FFF726FF04460748006920F00200054969
:100A10000861204630BD0000E0F7FF1FFFFF070818
:100A20000000FF0F002002400C48006900F0800029
:100A300020B10B48094948600A4848600A480088C4
:100A4000B0F5007F09D90548006D00F0800020B1A5
:100A50000348024948640348486470470020024044
:100A600023016745AB89EFCDE0F7FF1F70B5044662
:100A70000D46002627480088B0F5007F31D926486A
:100A8000844217D22548FFF7E3FE0646002E3ED1EA
:100A90002348006940F001002149086125601F4892
:100AA000FFF7D6FE06461E48006920F001001C49EB
:100AB00008612CE01948FFF7F5FE06463EBB1848D2
:100AC000006D40F001001649086525601348FFF7E6
:100AD000E9FE06461248006D20F001001049086545
:100AE00015E00E48FFF7B4FE064686B90C480069CB
:100AF00040F001000A49086125600848FFF7A8FE98
:100B000006460748006920F00100054908613046A3
:100B100070BD0000E0F7FF1FFFFF07080000FF0F98
:100B20000020024070B504460D460F480088C828D2
:100B300011D20D490888411C0B4B19800B490C54EC
:100B40000A2C0FD1184601880848FFF709FC00203D
:100B50000549088006E0C8210448FFF701FC002091
:100B600001490880204670BD0800002024080020AC
:100B7000F0B5044616460025002201F00F0501F0ED
:100B8000100747B1042E05D145F00305E76B1F435D
:100B9000E76300E0354300201EE0012787401F4047
:100BA000C7B122684FEA800C0F2707FA0CF7BA4347
:100BB000870005FA07F73A43282904D1012787401F
:100BC0001F40676105E0482903D1012787401F4086
:100BD00027612260471CB8B20828DED3082022E033
:100BE000012787401F40E7B16268A0F108074FEA7C
:100BF000870C0F2707FA0CF7BA43A0F10807BF00CC
:100C000005FA07F73A43282904D1012787401F40F6
:100C1000676105E0482903D1012787401F4027610C
:100C20006260471CB8B21028DAD3F0BD10B5044694
:100C30000B4800680B490840B0F1005F0FD108482D
:100C40004068094908600846006808490860044986
:100C5000086880F3088800BF04480068804710BD1A
:100C6000003000080000FE2F0400002000000020DB
:100C700010B507A0FFF760FC0848406800F07F400F
:100C8000B0F1006F02D10548FFF7D0FF10BD0000A2
:100C90003131313131313131310D0A00003000084C
:100CA00000F070F9FFF702FC03A0FFF745FC00F02D
:100CB00091F900BFFEE70000626F6F742072756EDD
:100CC000696E67200D0A00002DE9F04F8CB00746D1
:100CD00000200A904AA090E8004CC068CDE905BE0B
:100CE000CDF810A007900FF21C1ADAE9000ACDE93E
:100CF000020A0FF2101ADAE9000ACDE9000A4448A4
:100D00004068C0F381000B900B9820B1012804D0FB
:100D100002283FD103E03F4A3EE03E4A3CE03C48E7
:100D2000406800F4803CBCF5803F12D13848C06A6E
:100D300000F08048B8F1000F01D1364C00E0364C8D
:100D40003348406800F40039B9F5003F02D1334C14
:100D500000E0324C2E484068C0F383412C48406884
:100D600000F0006008B141F010012948406800F02F
:100D7000804008B141F020010F2901D2891C06E012
:100D80000F2903D33E2901D8491C00E03F2104FB71
:100D900001F201E01F4A00BF00BF1D484068C0F3D8
:100DA000031504A8465D22FA06F319484068C0F30B
:100DB000022502A8465D23FA06F00990144840680F
:100DC000C0F3C2251DF8056023FA06F0089037B17C
:100DD000012F06D0022F06D0032F0AD106E00A9277
:100DE00008E00A9306E009980A9003E008980A9040
:100DF00000E000BF00BF0A980CB0BDE8F08F000013
:100E000000000000000000000102030406070809BA
:100E10000010024000127A00006CDC0200093D0064
:100E2000064A02EB9011096800F01F0301229A4064
:100E30001143024B03EB9012116070470010024007
:100E4000064A02EB9011096800F01F0301229A4044
:100E50009143024B03EB9012116070470010024067
:100E6000064A02EB9011096800F01F0301229A4024
:100E70001143024B03EB90121160704700100240C7
:100E800000200021394A126842F00102374B1A60F3
:100E900000BF401C354A126802F0020111B9B0F5DA
:100EA000A06FF6D1314A126802F002020AB900BFFF
:100EB000FEE72E4AD26942F080522C4BDA612C4A6E
:100EC000126842F440422A4B1A60284A5268274B63
:100ED0005A601A4652685A601A46526842F4806252
:100EE0005A601A465268234B1A40204B5A601A46E1
:100EF0005268214B1A431D4B5A601A46126842F041
:100F000080721A6000BF194A126802F00072002A4B
:100F1000F9D0174A126842F48032154B1A6000BFAC
:100F2000134A526802F48032002AF9D0104A12683B
:100F300042F400320E4B1A6000BF0D4A526802F4B0
:100F40000032002AF9D0094A526822F00302074B06
:100F50005A601A46526842F002025A6000BF034AC1
:100F6000526802F00802002AF9D0704700100240CF
:100F700000700040FFFFC3B70000340810B5FFF752
:100F80007FFF10BD10B51248006842F21071B0FB2F
:100F9000F1F4601EB0F1807F01D301200FE0601EEC
:100FA0004FF0E02148610F214FF0FF30FFF72AFAA0
:100FB00000204FF0E021886107200861002008B17F
:100FC00000BFFEE70021481EFFF71CFA10BD00001D
:100FD000100000202DE9F843002700260020009093
:100FE0000C2235493548FFF722F934480389426815
:100FF000017833A0FFF7A0FA30480078A52856D131
:101000002E484068002852D000242C484068012116
:1010100001EBD02529484068B0F5006F06D327487A
:101020008088A0EBC5201FFA80F803E02348808861
:101030001FFA80F8002415E0274800EBC4214FF484
:1010400000622648FFF7F3F8254800EBC427021496
:1010500039462248FFF7FAF83A46214621A0FFF721
:101060006BFA641CAC42E7D300240AE01C48211848
:1010700001226846FFF7DBF89DF80000304486B295
:10108000641C0E484068A042F0D831461BA0FFF710
:1010900053FA0A480089B04208D10848002101608B
:1010A000416081600C220449FFF7D0F800BFFFF7D0
:1010B000DFFDBDE8F88300000020060818000020CE
:1010C000726561642064617461203A25782025642A
:1010D0002025780D0A0000000010030824000020DD
:1010E00000300008757064617461203A25642061E5
:1010F0006464723A25780D0A00000000757067720A
:10110000616465203A25780D0A0000002DE9F0475A
:1011100004460D460027B846B94600261D49601A08
:101120008C421CD006DC1C48204470B1B0F5806FA6
:101130001FD10FE0B0F5806F16D0B0F56C4F18D10D
:101140000320FFF7C1FD074614E00220FFF7BCFDB6
:1011500007460FE00220FFF7B7FD07460AE002202E
:10116000FFF7B2FD074605E00220FFF7ADFD074699
:1011700000E000BF00BF07EB5500B0FBF5F64FF6EF
:10118000F07006EA000806F00F0948EA0900A060BE
:10119000BDE8F087004C004000BCFFBFC1F308026F
:1011A0004260704710B504462049601A8C4228D02E
:1011B00006DC1F48204490B1B0F5806F33D117E0B2
:1011C000B0F5806F26D0B0F56C4F2CD140F20E30C8
:1011D000FFF746FE40F20E30FFF732FE24E040F209
:1011E0001140FFF73DFE40F21140FFF729FE1BE0E2
:1011F00040F21240FFF734FE40F21240FFF720FEAB
:1012000012E040F21340FFF72BFE40F21340FFF7CD
:1012100017FE09E040F21440FFF722FE40F21440AE
:10122000FFF70EFE00E000BF00BF10BD004C004005
:1012300000BCFFBFC16841F40051C160704710B5E8
:10124000024602EB9110006801F01F040123A34045
:10125000184008B1012010BD0020FCE710B500EBDC
:101260009112126801F01F040123A3401A4300EBFE
:1012700091131A6010BD10B500EB91521268C1F3C2
:1012800004440123A3409A4300EB91531A6010BD1C
:10129000C26822F4C062C260C2680A43C26070477A
:1012A0000A460021C16821F004011143C160704762
:1012B000026922F44052026102690A4302617047E6
:1012C0000A460021C16821F008011143C16070473E
:1012D000C26822F48052C260C2680A43C26070478A
:1012E0000013000800000020180000005805000846
:1012F0001813000818000020D81C0000680500081A
:1013000000000000000000000000000000000000DD
:08131000000E27070000000099
:0400000508000131BD
:00000001FF
